:100000000EC020C045C01EC034C01CC01BC01AC0DA
:1000100019C018C017C016C015C014C013C01124D1
:100020001FBECFE5D2E0DEBFCDBF10E0A0E6B0E05E
:10003000E4EFF0E002C005900D92A236B107D9F7C7
:1000400055D056C0DDCFBC9ABB9888B38F6188BBB2
:100050008BB780628BBF85B38F6085BB8CB58066A4
:100060008CBD89B7846089BF789480B7876080BF72
:1000700008951F920F920FB60F9211248F938091C3
:1000800060008BBD8F910F900FBE0F901F90189541
:100090001F920F920FB60F9211248F939F9383ECB0
:1000A00099E00197F1F700C00000B39903C088EC14
:1000B00090E011C0B29903C086E990E00CC0B199FC
:1000C00003C084E690E007C0B09903C082E390E0EB
:1000D00002C08AE090E090936100809360009F915D
:1000E0008F910F900FBE0F901F901895ACDFFFCF30
:0400F000F894FFCFB2
:0200F4000A0000
:00000001FF
