:100000000EC01DC01CC01BC01AC019C018C017C02C
:100010002CC015C014C013C012C011C010C01124D0
:100020001FBECFE5D2E0DEBFCDBF20E0A0E6B0E04E
:1000300001C01D92A236B207E1F72BD05BC0E0CF22
:10004000369A08953F9887B1826287B986B18B6EE0
:1000500086B91A98F5CFBC9887B38F6087BB88B3F1
:10006000807F88BBEFDF789408951F920F920FB6C0
:100070000F9211248F939F9385B190E0909361002C
:10008000809360009F918F910F900FBE0F901F90F3
:100090001895E1DF85EA9EE00197F1F700C00000C6
:1000A0008091600090916100843B910524F088B3B9
:1000B000877088601DC09C012259310924313105A7
:1000C00020F488B38B70846013C09C0120563109E2
:1000D0002431310520F488B38D70826009C0C39744
:1000E0000F9720F488B38E70816002C088B3807F40
:0800F00088BBD0CFF894FFCFCC
:00000001FF
