:100000000EC033C01CC01BC01AC019C018C017C016
:1000100016C015C042C013C012C011C010C01124B8
:100020001FBECFE5D2E0DEBFCDBF20E0A0E6B0E04E
:1000300001C01D92A636B207E1F746D082C0E0CFDC
:10004000BA9887B38B6187BB88B3847E88BB85B73A
:10005000816085BF8BB780648BBF8AB582608ABDA3
:1000600089B7806189BF789408951F920F920FB667
:100070000F9211248F93B29B07C0109265001092CB
:10008000640083B7816002C083B78E7F83BF8F9186
:100090000F900FBE0F901F9018951F920F920FB6E2
:1000A0000F9211248F939F9380916400909165002B
:1000B000019690936500809364009F918F910F90BB
:1000C0000FBE0F901F901895BBDF84E689BD29E015
:1000D0003AE041E152E181EE94E00197F1F700C08E
:1000E0000000B299F8CF8091640090916500BC0146
:1000F0006F5071096430710518F488B358BBEBCFA9
:10010000BC016B5071096330710518F488B348BBAA
:10011000E2CFBC01675071096430710518F488B3EF
:1001200038BBD9CFBC01635071096430710518F434
:1001300088B328BBD0CF029774F688B3847E88BB7F
:06014000CACFF894FFCFC6
:00000001FF
