:100000000C9434000C9451000C9451000C94510049
:100010000C9451000C9451000C9451000C9451001C
:100020000C9451000C9451000C9451000C9451000C
:100030000C9451000C9451000C9451000C945100FC
:100040000C9451000C9451000C945E000C945100DF
:100050000C9451000C9451000C9451000C945100DC
:100060000C9451000C94510011241FBECFEFD8E026
:10007000DEBFCDBF11E0A0E0B1E0EEE5F1E002C0EF
:1000800005900D92A438B107D9F722E0A4E8B1E0B9
:1000900001C01D92A930B207E1F70E946E000C94D6
:1000A000AD000C9400008091C00087FD04C08091D9
:1000B000C6008823C1F38091C60008951F920F9255
:1000C0000FB60F9211248F938091C6008093840104
:1000D0008F910F900FBE0F901F90189584B18E6373
:1000E00084B92D98299A1092C50087E68093C400A0
:1000F00080E98093C10086E08093C20078941092DA
:10010000C60040918401242F30E08091830190E06B
:10011000BC016C5F7F4F2617370711F42D9AF1CF82
:10012000BC016D5F7F4F2617370711F42C9AE9CF7A
:10013000BC016E5F7F4F2617370711F42B9AE1CF72
:1001400001962817390711F42A9ADBCF4530C9F6F2
:0E0150002D982C982B982A98D4CFF894FFCF96
:10015E0001002068656C6C6F20000000000000003C
:10016E000000000000000000000000000000000081
:10017E000000000000000000000000000000000071
:10018E000000000000000000000000000000000061
:10019E000000000000000000000000000000000051
:1001AE000000000000000000000000000000000041
:1001BE000000000000000000000000000000000031
:1001CE000000000000000000000000000000000021
:0401DE0000001F1FDF
:00000001FF
