:100000000C9434000C9451000C9451000C94510049
:100010000C9451000C9451000C9451000C9451001C
:100020000C9451000C9451000C9451000C9451000C
:100030000C9451000C9451000C9451000C945100FC
:100040000C9451000C9451000C947D000C945100C0
:100050000C9451000C9451000C9451000C945100DC
:100060000C9451000C94510011241FBECFEFD8E026
:10007000DEBFCDBF11E0A0E0B1E0E6E6F2E002C0F5
:1000800005900D92A830B107D9F721E0A8E0B1E0C2
:1000900001C01D92AC30B207E1F70E94F1000C9450
:1000A00031010C94DF002091080130910901809109
:1000B0000A0190910B0128173907E9F0E091080136
:1000C000F0910901EB5FFE4F808120910801309192
:1000D00009012F5F3F4F30930901209308012091C0
:1000E0000801309109012330310534F010920901E3
:1000F00010920801089580E008951F920F920FB6A4
:100100000F9211248F939F93EF93FF93E0910A0135
:10011000F0910B018091C600EB5FFE4F80838091D0
:100120000501833751F580910A0190910B018130CF
:10013000910579F082309105B1F0892B21F5E0919C
:100140000A01F0910B01EB5FFE4F8081809301016A
:100150001AC0E0910A01F0910B01EB5FFE4F808124
:100160008093030110C0E0910A01F0910B01EB5F55
:10017000FE4F80818093020106C08FEF9FEF909326
:100180000B0180930A0180910A0190910B01019665
:1001900090930B0180930A0180910A0190910B01C9
:1001A000039724F010920B0110920A01FF91EF9136
:1001B0009F918F910F900FBE0F901F9018951F92D7
:1001C0000F920FB60F9211248F939F939BB187E0EC
:1001D00089278BB99F918F910F900FBE0F901F9021
:1001E000189584B18E6384B92D988AB1806C8AB9D0
:1001F0005F981092C50087E68093C4001092C000FB
:1002000088ED8093C10086E08093C20078941092BC
:10021000C6008FE39CE90197F1F700C000009091C0
:10022000030180910401981317C0809102018C365C
:1002300079F034F4823651F0863659F7299AE9CFAD
:100240008E3641F0823729F72A9AE3CF2C9AE1CFF4
:100250002B9ADFCF299801C02D982C982B982A989B
:06026000D8CFF894FFCF97
:0802660030303030313030300F
:00000001FF
