:100000000C9434000C9451000C9451000C947C001E
:100010000C9451000C9451000C9451000C9451001C
:100020000C9451000C9451000C9451000C9451000C
:100030000C9451000C9451000C9451000C945100FC
:100040000C9451000C9451000C9451000C945100EC
:100050000C94D6000C9451000C9451000C94510057
:100060000C9451000C94510011241FBECFEFD8E026
:10007000DEBFCDBF11E0A0E0B1E0E8EBF2E002C0EE
:1000800005900D92AA30B107D9F721E0AAE0B1E0BE
:1000900001C01D92A031B207E1F70E941C010C942F
:1000A0005A010C940A018091C00085FD1092C6008F
:1000B0000895E0910C01F0910D01E050FF4F808315
:1000C00080910C0190910D01019690930D01809308
:1000D0000C0180910C0190910D01039724F0109276
:1000E0000D0110920C01089590910801E0E0F1E0FB
:1000F00090838183628308951F920F920FB60F92AF
:1001000011242F933F934F935F936F937F938F931C
:100110009F93AF93BF93EF93FF938FE19EE401977B
:10012000F1F700C000001C9904C08091090166E647
:1001300011C01B9904C08091090162E60BC01A9995
:1001400004C0809109016CE605C0199906C0809130
:10015000090162E70E94740010C0189910C0209134
:100160000E0130910F0181E090E0232B11F080E02F
:1001700090E090930F0180930E01289A06C0809121
:1001800009016EE60E9474002898FF91EF91BF91DB
:10019000AF919F918F917F916F915F914F913F911F
:1001A0002F910F900FBE0F901F9018951F920F92D6
:1001B0000FB60F9211248F939F93EF93FF9380912B
:1001C0000A0190910B010397E1F0E0910A01F0918F
:1001D0000B01E050FF4F80818093C60080910A019F
:1001E00090910B01019690930B0180930A018091ED
:1001F0000A0190910B01039724F010920B011092C9
:100200000A01FF91EF919F918F910F900FBE0F9078
:100210001F9018951F920F920FB60F9211248F9373
:100220009F939BB187E089278BB99F918F910F9006
:100230000FBE0F901F901895209A28988AB18C6C49
:100240008AB95A98259885B18E6385B91092C500F0
:1002500087E68093C4001092C00088ED8093C100AF
:1002600086E08093C2001092C60080916B008E637E
:1002700080936B008091680081608093680078941F
:1002800080910E0190910F01892B39F48091060124
:10029000809309015A9A5B98F3CF80910E01909157
:1002A0000F01019769F780910601809309015A981F
:0802B0005B9AE6CFF894FFCF42
:0A02B8003030300100303231733174
:00000001FF
