:100000000C9434000C9451000C9451000C94510049
:100010000C9451000C9451000C9451000C9451001C
:100020000C9451000C9451000C9451000C9451000C
:100030000C9451000C9451000C9451000C945100FC
:100040000C9451000C9451000C947D000C945100C0
:100050000C9451000C9451000C9451000C945100DC
:100060000C9451000C94510011241FBECFEFD8E026
:10007000DEBFCDBF11E0A0E0B1E0E6E6F2E002C0F5
:1000800005900D92AA30B107D9F721E0AAE0B1E0BE
:1000900001C01D92A031B207E1F70E94F6000C9456
:1000A00031010C94000020910C0130910D018091E0
:1000B0000E0190910F0128173907E9F0E0910C012A
:1000C000F0910D01E95FFE4F808120910C0130918C
:1000D0000D012F5F3F4F30930D0120930C012091B4
:1000E0000C0130910D012330310534F010920D01D7
:1000F00010920C01089580E008951F920F920FB6A0
:100100000F9211242F933F938F939F93EF93FF931D
:10011000E0910E01F0910F018091C600E95FFE4F62
:100120008083809107018337C9F580910E019091FA
:100130000F018130910579F08230910529F1892BE9
:10014000B9F5E0910E01F0910F01E95FFE4F80815A
:10015000809301012DC0E0910E01F0910F01E95F44
:10016000FE4F20812093030130910301209104016F
:10017000321305C090930B0180930A0119C01092AD
:100180000B0110920A0114C0E0910E01F0910F01D1
:10019000E95FFE4F8081809302010AC08FEF9FEFDD
:1001A00090930F0180930E012D982C982B982A98EC
:1001B00080910E0190910F01019690930F01809311
:1001C0000E0180910E0190910F01039724F010927F
:1001D0000F0110920E01FF91EF919F918F913F912E
:1001E0002F910F900FBE0F901F90189584B18E63C2
:1001F00084B92D981092C50087E68093C4001092B0
:10020000C00080E98093C10086E08093C2007894AA
:100210001092C60080910A0190910B010197E1F4C0
:10022000809102018C3681F034F4823651F08636AA
:1002300089F72B9A0CC08E3661F0823759F72C9AC9
:1002400006C02C9A299AE6CF299A2B9AE3CF2A9AAC
:10025000E1CF289A299801C02D982C982B982A989C
:06026000D9CFF894FFCF96
:0A02660030303030323131303030AA
:00000001FF
