:100000000C9434000C9446000C9446000C9446006A
:100010000C9446000C9446000C9446000C94460048
:100020000C9446000C9446000C9446000C94460038
:100030000C9446000C9446000C9446000C94460028
:100040000C9446000C9446000C9463000C944600FB
:100050000C9446000C9446000C9446000C94460008
:100060000C9446000C94460011241FBECFEFD8E03C
:10007000DEBFCDBF21E0A0E0B1E001C01D92A730FE
:10008000B207E1F70E9497000C94C9000C9400009D
:10009000E0910201F0910301EC5FFE4F80838091BB
:1000A0000201909103010196909303018093020154
:1000B0008091020190910301039724F010920301B3
:1000C0001092020108951F920F920FB60F92112401
:1000D0008F939F93EF93FF93809100019091010183
:1000E0000397E1F0E0910001F09101018091C600D9
:1000F000EC5FFE4F80838091000190910101019699
:100100009093010180930001809100019091010181
:10011000039724F01092010110920001FF91EF91DA
:100120009F918F910F900FBE0F901F90189584B1E3
:100130008E6384B92D981092C50087E68093C40021
:1001400080E98093C10086E08093C2007894109289
:10015000C6008091040190910501809106019F31B4
:10016000C1F78B3C79F030F4853071F0823689F735
:100170002B9AEFCF8A3D21F08A3F59F72A9AE9CF8F
:10018000299AE7CF2C9AE5CF29982C982B982A9872
:06019000E0CFF894FFCF60
:00000001FF
