:100000000C9434000C9451000C9451000C94510049
:100010000C9451000C9451000C9451000C9451001C
:100020000C9451000C9451000C9451000C9451000C
:100030000C9451000C9451000C9451000C945100FC
:100040000C9451000C9451000C94F5000C94510048
:100050000C94C1000C9451000C9451000C9451006C
:100060000C9451000C94510011241FBECFEFD8E026
:10007000DEBFCDBF11E0A0E0B1E0E2EDF2E002C0F2
:1000800005900D92AC30B107D9F721E0ACE0B1E0BA
:1000900001C01D92AE31B207E1F70E941A010C9423
:1000A00067010C94000090910701E0E0F1E090837B
:1000B0008183628308952091170130911801809106
:1000C000190190911A0128173907E9F0E0911701F9
:1000D000F0911801E55EFE4F80812091170130916B
:1000E00018012F5F3F4F3093180120931701209183
:1000F0001701309118012330310534F010921801A6
:1001000010921701089580E008958FE39CE901970C
:10011000F1F700C00000E6ECF0E088E780838FE3B1
:100120009CE90197F1F700C0000080910A018083EB
:100130008FE39CE90197F1F700C0000089E7808315
:100140008FE39CE90197F1F700C000008091160150
:1001500080838FE39CE90197F1F700C000008AE7F4
:1001600080838FE39CE90197F1F700C00000809144
:10017000150180838FE39CE90197F1F700C000002F
:1001800008951F920F920FB60F9211248F939F9391
:10019000EF93FF9380910C0190910D010397E1F093
:1001A000E0910C01F0910D018091C600E050FF4FED
:1001B000808380910C0190910D01019690930D0127
:1001C00080930C0180910C0190910D01039724F014
:1001D00010920D0110920C01FF91EF919F918F9160
:1001E0000F900FBE0F901F9018951F920F920FB691
:1001F0000F9211248F938091C60080930901809102
:100200000901813339F480910501809308015F9AD7
:100210005E980AC080910901823331F48091050112
:10022000809308015F985E9A8F910F900FBE0F9098
:100230001F90189584B18F6184B92C988AB1806C15
:100240008AB95F981092C50087E68093C400109227
:10025000C00088ED8093C10086E08093C20078944E
:100260001092C600809109018C36F1F05CF4823660
:10027000A1F08636B9F78091080164E40E9453002A
:10028000299A18C08E36C1F0823761F78091080133
:100290006AEF0E9453002A9A0DC0809108016BEC0E
:1002A0000E9453002C9A06C08091080162E60E94C9
:1002B00053002B9A2898D6CF8091080165E00E94C0
:1002C0005300289A29982C982B982A98CBCFF894E9
:0202D000FFCF5E
:0C02D2003030300100090CAA0C30AA00EA
:00000001FF
