:100000000C9434000C9451000C9451000C94510049
:100010000C9451000C9451000C9451000C9451001C
:100020000C9451000C9451000C9451000C9451000C
:100030000C9451000C9451000C9451000C945100FC
:100040000C9451000C9451000C947D000C945100C0
:100050000C9451000C9451000C9451000C945100DC
:100060000C9451000C94510011241FBECFEFD8E026
:10007000DEBFCDBF11E0A0E0B1E0EAEDF1E002C0EB
:1000800005900D92A830B107D9F721E0A8E0B1E0C2
:1000900001C01D92AC30B207E1F70E94C6000C947B
:1000A000EB000C94B400209108013091090180917B
:1000B0000A0190910B0128173907E9F0E091080136
:1000C000F0910901EC5FFE4F808120910801309191
:1000D00009012F5F3F4F30930901209308012091C0
:1000E0000801309109012330310534F010920901E3
:1000F00010920801089580E008951F920F920FB6A4
:100100000F9211248F939F93EF93FF93E0910A0135
:10011000F0910B018091C600EC5FFE4F8083E0916F
:100120000A01F0910B01EC5FFE4F80818093C600C5
:1001300080910A0190910B01019690930B0180939D
:100140000A0180910A0190910B01039724F010920B
:100150000B0110920A01FF91EF919F918F910F90E7
:100160000FBE0F901F9018951F920F920FB60F920F
:1001700011248F939F939BB187E089278BB99F911F
:100180008F910F900FBE0F901F90189584B18E63C2
:1001900084B92D988AB1806C8AB95F981092C50095
:1001A00087E68093C4001092C00088ED8093C10060
:1001B00086E08093C20078941092C600D0E30E943B
:1001C0005300C82F0E9453000E945300D093C600D2
:0A01D000C093C600F4CFF894FFCFEF
:0801DA003030303130303000CC
:00000001FF
