:100000000C9434000C9451000C9451000C94510049
:100010000C9451000C9451000C9451000C9451001C
:100020000C9451000C9451000C9451000C9451000C
:100030000C9451000C9451000C9451000C945100FC
:100040000C9451000C9451000C947D000C945100C0
:100050000C9451000C9451000C9451000C945100DC
:100060000C9451000C94510011241FBECFEFD8E026
:10007000DEBFCDBF11E0A0E0B1E0E2E9F2E002C0F6
:1000800005900D92A830B107D9F721E0A8E0B1E0C2
:1000900001C01D92AE30B207E1F70E940D010C9431
:1000A00047010C94FB0020910A0130910B018091D3
:1000B0000C0190910D0128173907E9F0E0910A0130
:1000C000F0910B01EB5FFE4F808120910A0130918E
:1000D0000B012F5F3F4F30930B0120930A012091BA
:1000E0000A0130910B012330310534F010920B01DD
:1000F00010920A01089580E008951F920F920FB6A2
:100100000F9211242F933F938F939F93EF93FF931D
:10011000E0910C01F0910D018091C600EB5FFE4F64
:100120008083E0910C01F0910D01EB5FFE4F808127
:100130008093C600809105018337C9F580910C0139
:1001400090910D018130910579F08230910529F16E
:10015000892B99F5E0910C01F0910D01EB5FFE4FB9
:1001600080818093010129C0E0910C01F0910D0183
:10017000EB5FFE4F2081209303013091030120911A
:100180000401321305C0909309018093080115C042
:10019000109209011092080110C0E0910C01F09139
:1001A0000D01EB5FFE4F80818093020106C08FEF4F
:1001B0009FEF90930D0180930C0180910C01909121
:1001C0000D01019690930D0180930C0180910C011B
:1001D00090910D01039724F010920D0110920C01E3
:1001E000FF91EF919F918F913F912F910F900FBEB3
:1001F0000F901F9018951F920F920FB60F92112417
:100200008F939F939BB187E089278BB99F918F91A3
:100210000F900FBE0F901F90189584B18E6384B914
:100220002D988AB1806C8AB95F981092C50087E6D4
:100230008093C4001092C00088ED8093C10086E0D6
:100240008093C20078941092C6008091080190912A
:1002500009010197B9F4809102018C3679F034F4E8
:10026000823651F0863689F7299AEFCF8E3641F0E3
:10027000823759F72A9AE9CF2C9AE7CF2B9AE5CF04
:10028000299801C02D982C982B982A98DECFF894A5
:02029000FFCF9E
:080292003030303031303030E3
:00000001FF
