:100000000C9434000C9451000C9451000C945B003F
:100010000C9451000C9451000C9451000C9451001C
:100020000C9451000C9451000C9451000C9451000C
:100030000C9451000C9451000C9451000C945100FC
:100040000C9451000C9451000C9451000C945100EC
:100050000C94A3000C9451000C9451000C9451008A
:100060000C9451000C94510011241FBECFEFD8E026
:10007000DEBFCDBF11E0A0E0B1E0ECECF1E002C0EA
:1000800005900D92A630B107D9F721E0A6E0B1E0C6
:1000900001C01D92AC30B207E1F70E94B3000C948E
:1000A000E4000C9400009AEA9093090180930901FE
:1000B0006093090108951F920F920FB60F921124B9
:1000C0002F933F938F939F938FE19EE40197F1F7D6
:1000D00000C000001D9904C0809104018C5F11C014
:1000E0001C9904C0809104018D5F0BC01B9904C052
:1000F000809104018E5F05C01A9906C080910401A9
:100100008F5F8093090110C0189910C020910601DB
:100110003091070181E090E0232B11F080E090E026
:100120009093070180930601299A04C085E080938B
:10013000090129989F918F913F912F910F900FBEA8
:100140000F901F9018951F920F920FB60F921124C7
:100150008F93809109018093C6008F910F900FBEFD
:100160000F901F901895219A29981092C50087E644
:100170008093C40088E48093C10086E08093C2002D
:100180001092C60080916B008D6380936B0080910C
:10019000680081608093680078948091000190915C
:1001A00001012091060130910701232B19F490934E
:1001B0000401F7CF2091060130910701213031056C
:0C01C00081F780930401EDCFF894FFCF8D
:0601CC00AA0C01000C6EFC
:00000001FF
