:100000000C9434000C9451000C9451000C94580042
:100010000C9451000C9451000C9451000C9451001C
:100020000C9451000C9451000C9451000C9451000C
:100030000C9451000C9451000C9451000C945100FC
:100040000C9451000C9451000C9451000C945100EC
:100050000C94AC000C9451000C9451000C94510081
:100060000C9451000C94510011241FBECFEFD8E026
:10007000DEBFCDBF11E0A0E0B1E0E2E2F2E002C0FD
:1000800005900D92AA30B107D9F721E0AAE0B1E0BE
:1000900001C01D92A431B207E1F70E94DB000C946D
:1000A0000F010C940000E2E1F1E080836183089588
:1000B0001F920F920FB60F9211242F933F938F939D
:1000C0009F938FE19EE40197F1F700C000001D9916
:1000D00006C0809106018093120186E617C01C9924
:1000E00006C0809106018093120182E60FC01B9921
:1000F00006C0809106018093120182E707C01A9919
:1001000008C080910601809312018CE68093130150
:1001100010C0199910C020910A0130910B0181E0A3
:1001200090E0232B11F080E090E090930B018093FE
:100130000A01289A08C080910601809312018EE678
:100140008093130128989F918F913F912F910F9049
:100150000FBE0F901F9018951F920F920FB60F921F
:1001600011248F939F93EF93FF9310920D011092A0
:100170000C0180910C0190910D0102979CF4E0918B
:100180000C01F0910D01EE5EFE4F80818093C60060
:1001900080910C0190910D01019690930D01809337
:1001A0000C01E7CFFF91EF919F918F910F900FBEC0
:1001B0000F901F901895209A28988AB18C608AB960
:1001C0002A98259885B18E6385B91092C50087E677
:1001D0008093C40088E48093C10086E08093C200CD
:1001E0001092C60080916B008E6380936B008091AB
:1001F0006800816080936800789480910A019091F2
:100200000B01892B19F45A9A5B98F7CF80910A0158
:1002100090910B01019789F75A985B9AEECFF89469
:02022000FFCF0E
:0A02220001000C01003032736E0081
:00000001FF
