:100000000C9434000C9451000C9451000C94510049
:100010000C9451000C9451000C9451000C9451001C
:100020000C9451000C9451000C9451000C9451000C
:100030000C9451000C9451000C9451000C945100FC
:100040000C9451000C9451000C94F5000C94510048
:100050000C94C1000C9451000C9451000C9451006C
:100060000C9451000C94510011241FBECFEFD8E026
:10007000DEBFCDBF11E0A0E0B1E0EAECF2E002C0EB
:1000800005900D92A231B107D9F721E0A2E1B1E0CC
:1000900001C01D92AE31B207E1F70E9416010C9427
:1000A00063010C94000090910801E0E0F1E090837E
:1000B00081836283089520911A0130911B01809100
:1000C0001C0190911D0128173907E9F0E0911A01F0
:1000D000F0911B01E15FFE4F808120911A01309168
:1000E0001B012F5F3F4F30931B0120931A0120917A
:1000F0001A0130911B012330310534F010921B019D
:1001000010921A01089580E008958FE39CE9019709
:10011000F1F700C00000E6ECF0E088E780838FE3B1
:100120009CE90197F1F700C0000080910C018083E9
:100130008FE39CE90197F1F700C0000089E7808315
:100140008FE39CE90197F1F700C0000080910E0158
:1001500080838FE39CE90197F1F700C000008AE7F4
:1001600080838FE39CE90197F1F700C00000809144
:100170000D0180838FE39CE90197F1F700C0000037
:1001800008951F920F920FB60F9211248F939F9391
:10019000EF93FF9380911201909113010397E1F087
:1001A000E0911201F0911301E050FF4F80818093A4
:1001B000C600809112019091130101969093130152
:1001C000809312018091120190911301039724F002
:1001D0001092130110921201FF91EF919F918F9154
:1001E0000F900FBE0F901F9018951F920F920FB691
:1001F0000F9211248F938091C60080930A01809101
:100200000A01813329F4809309015F9A5E9808C03E
:1002100080910A01823321F4809309015F985E9AEC
:100220008F910F900FBE0F901F90189584B18F6320
:1002300084B92D988AB1806C8AB95F981092C500F4
:1002400087E68093C4001092C00088ED8093C100BF
:1002500086E08093C20078941092C60080910A01D3
:100260008C36F1F05CF48236A1F08636B9F78091D5
:10027000090166E60E945300299A18C08E36C1F023
:10028000823761F78091090162E70E9453002A9A40
:100290000DC08091090162E60E9453002C9A06C0AD
:1002A000809109016CE60E9453002B9A2898D6CFC2
:1002B000809109016EE60E945300289A29982C9893
:0A02C0002B982A98CBCFF894FFCFBB
:1002CA00303030010030323173316E3030303030FE
:0202DA003030C2
:00000001FF
