:100000000C9434000C9451000C9451000C945B003F
:100010000C9451000C9451000C9451000C9451001C
:100020000C9451000C9451000C9451000C9451000C
:100030000C9451000C9451000C9451000C945100FC
:100040000C9451000C9451000C9451000C945100EC
:100050000C9486000C9451000C9451000C945100A7
:100060000C9451000C94510011241FBECFEFD8E026
:10007000DEBFCDBF11E0A0E0B1E0E6E6F1E002C0F6
:1000800005900D92A430B107D9F721E0A4E0B1E0CA
:1000900001C01D92A830B207E1F70E9496000C94AF
:1000A000B1000C9400009AEA909305018093050139
:1000B0006093050108951F920F920FB60F921124BD
:1000C0008F939F938FE19EE40197F1F700C00000AA
:1000D0001D9902C084E00BC01C9902C083E007C0D8
:1000E0001B9902C082E003C01A9905C081E0809389
:1000F0000501299A04C085E08093050129989F9104
:100100008F910F900FBE0F901F9018951F920F9216
:100110000FB60F9211248F93809105018093C60032
:100120008F910F900FBE0F901F901895219A2998CC
:100130001092C50087E68093C40088E48093C100D4
:1001400086E08093C2001092C60080916B008C63A1
:1001500080936B0080916800816080936800789440
:06016000FFCFF894FFCF71
:0401660001006E0026
:00000001FF
