:100000000C9434000C9451000C9451000C94910009
:100010000C9451000C9451000C9451000C9451001C
:100020000C9451000C9451000C9451000C9451000C
:100030000C9451000C9451000C9451000C945100FC
:100040000C9451000C9451000C9451000C945100EC
:100050000C94E9000C9451000C9451000C94510044
:100060000C9451000C94510011241FBECFEFD8E026
:10007000DEBFCDBF11E0A0E0B1E0E6E1F3E002C0F9
:1000800005900D92A638B107D9F721E0A6E8B1E0B6
:1000900001C01D92AC38B207E1F70E944B010C94ED
:1000A00089010C943901E0918801F0918901E050B7
:1000B000FF4F8083809188019091890101969093F0
:1000C000890180938801809188019091890180380D
:1000D000910524F010928901109288010895E0E0C2
:1000E000F1E080838091880190918901019690933D
:1000F00089018093880161838091880190918901B1
:1001000001969093890180938801628310928901FE
:10011000109288010895E0E0F1E08083818382837A
:1001200008951F920F920FB60F9211242F933F93B1
:100130004F935F936F937F938F939F93AF93BF93EF
:10014000EF93FF938FE19EE40197F1F700C0000069
:100150001D9904C08091840166E611C01C9904C0F9
:100160008091840162E60BC01B9904C080918401D8
:100170006CE605C01A9906C08091840162E70E946E
:100180006F0010C0199910C020918A0130918B0125
:1001900081E090E0232B11F080E090E090938B01C0
:1001A00080938A01289A04C08EE60E948B002898CA
:1001B000FF91EF91BF91AF919F918F917F916F913F
:1001C0005F914F913F912F910F900FBE0F901F9015
:1001D00018951F920F920FB60F9211242F933F93F1
:1001E0008F939F93EF93FF932FEF89E698E1215030
:1001F00080409040E1F700C00000209186013091DE
:10020000870180918801909189012817390731F180
:10021000E0918601F0918701E050FF4F808180934B
:10022000C600E0918601F09187018091C600E05000
:10023000FF4F808380918601909187010196909372
:100240008701809386018091860190918701803893
:10025000910524F01092870110928601FF91EF9191
:100260009F918F913F912F910F900FBE0F901F90F4
:1002700018951F920F920FB60F9211248F939F9390
:100280009BB187E089278BB99F918F910F900FBE0B
:100290000F901F901895209A28988AB18C6C8AB973
:1002A0005A98259885B18E6385B91092C50087E666
:1002B0008093C4001092C00088E48093C10086E05F
:1002C0008093C2001092C60080916B008E63809371
:1002D0006B008091680081608093680078948091C1
:1002E0008A0190918B01892B39F48091820180934E
:1002F00084015A9A5B98F3CF80918A0190918B0187
:10030000019769F780918101809384015A985B9AE3
:06031000E6CFF894FFCFD8
:100316003030300000000000000000000000000047
:1003260000000000000000000000000000000000C7
:1003360000000000000000000000000000000000B7
:1003460000000000000000000000000000000000A7
:100356000000000000000000000000000000000097
:100366000000000000000000000000000000000087
:100376000000000000000000000000000000000077
:100386000000000000000000000000000000000067
:060396003032317331002A
:00000001FF
